:100000000C94FC000C941D130C94F6120C94240117
:100010000C9424010C9424010C9424010C942401CC
:100020000C9424010C9424010C9424010C943D03A1
:100030000C9424010C9424010C9424010C942401AC
:100040000C94AC120C9424010C949F110C94791113
:100050000C9424010C9424010C9424010C9424018C
:100060000C944B0C0C942401084AD73B3BCE016EF8
:1000700084BCBFFDC12F3D6C74319ABD56833DDAFF
:100080003D00C77F11BED9E4BB4C3E916BAAAABE0E
:10009000000000803F0000407A10F35A00A0724E2A
:1000A00018090010A5D4E80000E87648170000E41D
:1000B0000B54020000CA9A3B000000E1F505000065
:1000C00080969800000040420F000000A0860100CA
:1000D0000000102700000000E8030000000064009A
:1000E000000000000A000000000001000000000005
:1000F0002C76D888DC674F0823DFC1DFAE59E1B129
:10010000B796E5E3E453C63AE651997696E8E6C237
:100110008426EB898C9B62ED407C6FFCEFBC9C9F3E
:1001200040F2BAA56FA5F490055A2AF75C936B6C60
:10013000F9676DC11BFCE0E40D47FEF520E6B50054
:10014000D0ED902E0300943577050080841E0800C2
:1001500000204E0A000000C80C333333330F986E72
:1001600012831141EF8D2114893BE65516CFFEE62F
:10017000DB18D1844B381BF77C1D901DA4BBE424F5
:10018000203284725E228100C9F124ECA1E53D2772
:100190000000000023002600290072740092740001
:1001A00048940078C40000000000240027002A00C2
:1001B00000000000250028002B00040404040404AF
:1001C0000404020202020202030303030303010206
:1001D00004081020408001020408102001020408D5
:1001E00010200000000800020100000304070000C6
:1001F000000000000000662B11241FBECFEFD8E0E6
:10020000DEBFCDBF13E0A0E0B1E0ECE2F3E702C057
:1002100005900D92AE31B107D9F727E0AEE1B3E01A
:1002200001C01D92A530B207E1F710E0CCEFD0E09D
:1002300004C02197FE010E94AE34CB3FD107C9F71D
:100240000E94FD150C9494390C9400009FB7F8940B
:1002500080918903882319F08150809389038091CC
:100260008903811105C08CB58F7B8CBD10928803EA
:100270009FBF08958CB58F778CBD08958CB580682D
:100280008CBD08956EBD00000DB407FEFDCF8EB588
:1002900008959CB5282F23709C7F922B9CBD2DB573
:1002A00082FB992790F9822F8E7F892B8DBD08952F
:1002B000FC01738362830895FC017783668308954C
:1002C000FC017583648308950895089580E008957E
:1002D000FC0181850895FC0180850895FC018781DA
:1002E0000895FC0186810895FC0140959585492378
:1002F000642B65870895FC0164870895FC0163877A
:100300000895FC0162870895FC0164830895FC014F
:100310006583089580E00895FC01228133812330B4
:100320003105D1F381E00895CF93DF93EC01E881AB
:10033000F9810280F381E02DCE0109958823B9F37C
:10034000DF91CF91089581E0089581E08093370394
:100350000895CF93DF93FC01228133812230310550
:1003600069F0EC01668D848D0E94FA1160E08B8D3E
:100370000E94FA1182E090E09B838A83DF91CF9103
:100380000895CF93DF93EC01888D998DDC01ED9179
:10039000FC910680F781E02D099561E08A8D0E942D
:1003A0002A1261E08A8D0E94FA1164E670E080E012
:1003B00090E00E94661281E0DF91CF910895CF9383
:1003C000DF93FC01268137812115310549F0213069
:1003D000310541F02230310539F02330310531F05B
:1003E00020E005C024E003C028E001C02CE09CB55B
:1003F000937F922B9CBD84819581019709F04AC01F
:100400008CB580628CBD8281938101978430910587
:1004100028F4FC01E25FFE4FC08101C0C1E08C2FD7
:100420000E944901DFB7F89480918903811127C0A8
:10043000E4ECF1E09491E8EDF1E02491E92FF0E0B3
:10044000EE0FFF1FEA55FE4FA591B491EC91E22308
:1004500021F461E08AE00E94FA1161E08AE00E94E2
:100460002A128CB580618CBD8CB580648CBD61E036
:100470008DE00E942A1261E08BE00E942A12809196
:1004800089038F5F80938903DFBF8C2FDF91CF912A
:100490000C9449019CB59F7D9CBDB5CF8F929F92D6
:1004A000AF92BF92CF92DF92EF92FF92CF93DF9302
:1004B000EC016B010E94A0124B015C01E12CF12CBC
:1004C0000E94A012DC01CB0188199909AA09BB0975
:1004D0008C159D05AE05BF0530F48A819B8103977D
:1004E00079F381E001C080E0DF91CF91FF90EF9040
:1004F000DF90CF90BF90AF909F908F9008958F9294
:100500009F92AF92BF92CF92DF92EF92FF92CF93E2
:10051000DF93EC016B010E94A0124B015C01E12C06
:10052000F12C0E94A012DC01CB0188199909AA09BB
:10053000BB098C159D05AE05BF0550F4E881F98116
:100540000280F381E02DCE010995882351F301C08B
:1005500080E0DF91CF91FF90EF90DF90CF90BF9040
:10056000AF909F908F9008958F929F92AF92BF927D
:10057000CF92DF92EF92FF92CF93DF93FC01268917
:100580003789232B11F481E038C0EC010E94A012BE
:100590006B017C0189E0882E912CA12CB12CE88183
:1005A000F9810488F589E02DCE010995882359F356
:1005B0000E94A012AB01BC014C195D096E097F09B4
:1005C0008E899F89A0E0B0E084179507A607B7073A
:1005D00098F00E94582CA50194010E946A309B015A
:1005E000AC012F5F3F4F4F4F5F4FA4E6B0E00E943A
:1005F00089300E946612D3CF80E0DF91CF91FF90C7
:10060000EF90DF90CF90BF90AF909F908F90089524
:10061000CF93DF9380918703813061F460E08EE0B7
:100620000E94FA116091860380E195E0DF91CF91FD
:100630000C94E9088230F1F460E08EE00E94FA1137
:10064000C3E5D4E084E0C337D80731F0699180E195
:1006500095E00E94E908F6CF60E080E195E00E9415
:10066000E90880E2E3E5F4E0DF011D928A95E9F70D
:1006700010928603DF91CF9108951F920F920FB6CB
:100680000F921124CF92DF92EF92FF920F931F935C
:100690002F933F934F935F936F937F938F939F938A
:1006A000AF93BF93CF93DF93EF93FF93C0918A03F0
:1006B000D0918B038A819B81049709F0CAC02A8D4F
:1006C00030E0F901EE51FE4F8491F901E253FE4F03
:1006D0000491F901E654FE4F1491112379F0811130
:1006E0000E94D111E12FF0E0EE0FFF1FE057FE4F07
:1006F000A591B491EC91E02381E009F480E0817050
:100700009D8D892719F09AA19F5F9AA399A18917B6
:1007100071F09BA1903518F02DE130E002C02BE084
:1007200030E09BA1290F311D2BA389A303C08BA10E
:100730008C5E8BA38BA1803A08F4DDC08DA19EA1B5
:10074000969587959EA38DA38AA1853028F08DA1CB
:100750009EA198609EA38DA38BA1805A8BA31AA201
:100760008CA1882309F468C08FA18F5F8FA38C3080
:1007700008F4C1C08DA19EA1982F9F73892F8695E3
:100780008695887028E0280F821749F0E82FF0E05E
:10079000EE5EFE4F3081931719F08F5FF5CF80E04A
:1007A00020E1829FC00111242DA13EA196E0369543
:1007B00027959A95E1F7422F3695279536952795F7
:1007C000287038E0320F231749F0E22FF0E0EE5E98
:1007D000FE4F5081451719F02F5FF5CF20E0822B97
:1007E000AE0144595F4FFA019081DE01A559BF4F18
:1007F0009923B1F0FA01908121E0290F20839E0115
:10080000290F311DF90180A7FA0190818C91981769
:1008100088F01CA281E08F8FCE010E94A9010AC03E
:100820008C939C91973008F460C09C91943408F0AC
:100830005CC0E0CF1FA25FC08DA19EA188339B400A
:1008400009F059C081E08CA31FA2C459DF4F188260
:1008500052C08A819B81039709F04DC08E010159D6
:100860001F4FF801808191E0980F9083811137C06C
:100870007E01FDE6EF0EF11CF7018081EF56FF4F80
:100880009081891748F0CE010E94A9018B899C892B
:1008900001969C8B8B8B23C0FE01E80FF11DE05964
:1008A000FF4F608170E06E01FEE6CF0ED11CF601B5
:1008B000808191E0980F908302C0759567958A9525
:1008C000E2F7617077278B8D0E94FA11F601808123
:1008D000863028F01082F70180818F5F8083F801D5
:1008E0008081883040F0108206C01CA28F859889D4
:1008F0000196988B8F87FF91EF91DF91CF91BF91F8
:10090000AF919F918F917F916F915F914F913F91A7
:100910002F911F910F91FF90EF90DF90CF900F904C
:100920000FBE0F901F901895EF92FF920F931F9399
:10093000CF93DF931F92CDB7DEB77C01162F0FB791
:10094000F89460E0DC015A968C9149830E94FA1178
:10095000F701808D918DDC01ED91FC91612F606834
:100960000190F081E02D0995182FF701808D918D70
:10097000DC01ED91FC910190F081E02D4981642F23
:10098000099561E0F701828D0E94FA110FBF812F56
:100990000F90DF91CF911F910F91FF90EF900895ED
:1009A0000F931F93CF93DF93EC01162F0FB7F8949B
:1009B00060E08A8D0E94FA11888D998DDC01ED919D
:1009C000FC91612F6F770190F081E02D0995888D62
:1009D000998DDC01ED91FC910190F081E02D60E0BA
:1009E0000995182F61E08A8D0E94FA110FBF812F9F
:1009F000DF91CF911F910F910895FF920F931F9355
:100A0000CF93DF93CDB7DEB72C970FB6F894DEBF48
:100A10000FBECDBF109237039091DF038091E003AA
:100A2000981709F4FBC080E195E00E949D08209191
:100A3000DF039091E003893401F52917C1F080E1CB
:100A400095E00E949D08182F9091DF038091E003AC
:100A5000981729F080E195E00E949D08F5CF1532A6
:100A600031F410923B0381E080933803D7C081E0DA
:100A700080933B0310923803D1C0803509F06DC0DC
:100A800010E09091DF038091E003981759F080E126
:100A900095E00E949D08E12FF0E0EF5CFC4F808321
:100AA0001F5FEFCF45E061E373E088ED95E00E94C2
:100AB000640988ED95E00E948C0185E0E1E3F3E0B4
:100AC000DF011D928A95E9F703E514E080E2F82E34
:100AD000F8012F2D11922A95E9F768EB7BE088ED5C
:100AE00095E00E947F0210922E03882339F1F09244
:100AF000360346E353E0B80188ED95E00E940E0A04
:100B000060E08823C9F08EE00E94FA11F80101909C
:100B10000020E9F73197E355F440E093360381E094
:100B2000809386038091E605082E000C990B909324
:100B3000300380932F0361E080E108C086E09FEFDF
:100B40009093300380932F0361E08EE00E94FA11AE
:100B500060E080E10E94FA1161C0813511F481E00A
:100B600003C0823521F482E08093870357C0833528
:100B700009F054C0291721F080E195E00E949D08FA
:100B800080912F039091300388339F4F54F469ED87
:100B900072E083E594E00E94CF3681E08093860383
:100BA0003DC066ED71E0CE0107960E944F116EEDDB
:100BB00072E0CE0107960E94871060912F0370911A
:100BC0003003CE0107960E94571061E772E0CE0114
:100BD00007960E9487104AE061E170E0CE0101961D
:100BE0000E942311BE016F5F7F4FCE0107960E94C6
:100BF0009610CE0101960E94BE1065E272E0CE0111
:100C000007960E948710CE0107960E94BC1381E0D0
:100C100080938603CE0107960E94BE109091DF0359
:100C20008091E003981729F080E195E00E949D08EB
:100C3000F5CF2C960FB6F894DEBF0FBECDBFDF9177
:100C4000CF911F910F91FF9008950E9439140E9437
:100C5000361491E0811190E0892F08958F929F9230
:100C6000AF92BF92CF92DF92EF92FF920F931F93BA
:100C7000CF93DF93CDB7DEB72C970FB6F894DEBFD6
:100C80000FBECDBF80E2E3E5F4E0DF011D928A955F
:100C9000E9F788E0E6E2F3E0DF011D928A95E9F7E3
:100CA00066ED71E0CE0101960E944F1186E30E942D
:100CB0002506882309F4BCC041E262ED86E30E9468
:100CC000431486E30E9437157C0143E262ED86E31C
:100CD0000E94431486E30E9437158C0165EE72E092
:100CE000CE0101960E9487106F2D7727072E000CEA
:100CF000880B990B0E944D2F20E030E04CE753E425
:100D00000E94043120E030E040E853E40E94AC2F20
:100D10004B015C01C7019927BC01990F880B990B06
:100D20000E944D2F9B01AC01C501B4010E94053109
:100D30002FE632E143E050E40E94AC2F20E030E0A7
:100D400040E85AE30E94AC2F9B01AC010E940531A0
:100D5000AB01BC0122E0CE0107960E94F310BE0158
:100D6000695F7F4FCE0101960E949610CE010796D3
:100D70000E94BE1061E772E0CE0101960E948710CA
:100D8000612F7727072E000C880B990B0E944D2F9F
:100D900020E030E04CE753E40E94043120E030E0F2
:100DA00040E853E40E94AC2F6B017C01C8019927F5
:100DB0000197BC01990F880B990B0E944D2F9B0145
:100DC000AC01C701B6010E9405312FE632E143E0D4
:100DD00050E40E94AC2F20E030E040E85AE30E944B
:100DE000AC2F20E030E048EC52E40E94A0312AE031
:100DF00037ED43EA5CE30E94A03120E030E04AE7AF
:100E000054E40E94AC2FAB01BC0120E0CE01079658
:100E10000E94F310BE01695F7F4FCE0101960E94D0
:100E20009610CE0107960E94BE106FE672E002C0D7
:100E30006CEE72E0CE0101960E94871081E40E9460
:100E400025068823E1F168EF72E0CE0101960E9449
:100E500087100E942B1580FD03C090E3F92E02C07D
:100E600081E3F82E0E942B1581FD02C000E301C032
:100E700001E30E942B1582FD02C010E301C011E3C3
:100E80000E942B1583FD02C080E301C081E31F9205
:100E9000FF921F920F931F921F931F928F938FEFBA
:100EA00092E09F938F9386E293E09F938F930E94AB
:100EB000F3360FB6F894DEBF0FBECDBF06C06AE0B2
:100EC00073E0CE0101960E948710CE0101960E9428
:100ED000BC1366E273E083E594E00E94B936CE016C
:100EE00001960E94BE102C960FB6F894DEBF0FBE7E
:100EF000CDBFDF91CF911F910F91FF90EF90DF90C9
:100F0000CF90BF90AF909F908F900895FC01862F57
:100F100090913A039923B9F1A0918304B09184048C
:100F200092E09C93A0917F04B09180041C92A091C8
:100F30008104B091820490E19C9310928B04A09163
:100F40008704B091880496E09C93A0918504B091A9
:100F500086049C9190619C93A0918504B091860435
:100F60009C9198609C93A0918504B09186049C917B
:100F700090689C93A0918504B09186049C919F7D7C
:100F80009C9310923A03909139039923A1F04481E4
:100F9000558160817181882351F083E794E00E943C
:100FA000A90E64ED71E083E794E00C94641183E78B
:100FB00094E00C94A90E0895CF93DF9300D000D055
:100FC00000D0CDB7DEB740E263E574E088ED95E090
:100FD0000E94640988ED95E00E948C0166E173E04F
:100FE000CE0101960E944F1160E0CE0101960E9451
:100FF0008607CE0101960E94BE1063E574E0CE0123
:1010000001960E944F1161E0CE0101960E94860771
:10101000CE0101960E94BE1066ED71E0CE010196F0
:101020000E944F1161E0CE0101960E948607CE0119
:1010300001960E94BE1085E0E1E3F3E0DF011D921E
:101040008A95E9F726960FB6F894DEBF0FBECDBF9E
:10105000DF91CF91089585ED8093BC008091BC0015
:1010600084FDFCCF10922F0408954091B303262FE6
:1010700030E0240F311D21323105DCF420912F04A2
:101080002430C9F4FC0180E090E0861758F43091D8
:10109000B3032191DC01AD56BC4FA30FB11D2C93BE
:1010A0000196F3CF8091B303680F6093B30380E0A0
:1010B000089581E0089582E00895E0912403F0917D
:1010C0002503309729F010923104109252040994AC
:1010D0000895AC01E0912203F09123033097E1F0F1
:1010E0009091E0038091DF039817B0F090E0292FF2
:1010F00030E02617370754F4DA01A20FB31F8C91A2
:10110000D901AF51BC4F8C939F5FF1CF1092E00398
:101110006093DF03CB01099408950895E091E00303
:101120008091DF03E81730F4F0E0EF51FC4F80814D
:1011300090E008958FEF9FEF08959091E0038091E4
:10114000DF03981750F4E92FF0E0EF51FC4F2081B6
:1011500030E09F5F9093E00302C02FEF3FEFC901A3
:1011600008958091DF0390E02091E003821B9109B4
:101170000895CF92DF92EF92FF920F931F93CF9338
:10118000DF937C01262F972F8A01809130048823DA
:1011900091F0C62FD72F6E01C40ED51ECC15DD05DC
:1011A00071F06991D701ED91FC910190F081E02DF2
:1011B000C7010995F3CF642F822F0E943508C8011B
:1011C000DF91CF911F910F91FF90EF90DF90CF9023
:1011D0000895CF93DF931F92CDB7DEB76983209137
:1011E00030042223D1F020915204203240F021E03B
:1011F00030E0FC013383228380E090E015C08091D1
:101200003104E82FF0E0EE5CFB4F998190838F5F13
:10121000809331048093520405C061E0CE010196B1
:101220000E94350881E090E00F90DF91CF91089502
:10123000089580E090E008958BEF0895CF93DF93B9
:10124000EC018A819B81059771F047E061E0CE0156
:101250000E94940440E860E4CE010E94940485E07A
:1012600090E09B838A838A819B810597E1F38D8936
:10127000DF91CF910895CF93DF93FC0122813381D9
:101280002130310549F0EC0140E061E00E94940416
:1012900081E090E09B838A8381E0DF91CF91089584
:1012A000CF93DF93FC01228133812230310549F055
:1012B000EC0141E061E00E94940482E090E09B83B5
:1012C0008A83DF91CF910895BF92CF92DF92EF9200
:1012D000FF920F931F93CF93DF934C3F10F0E12CBD
:1012E0006FC0142F072FF62EEC01E881F9810484DA
:1012F000F585E02D0995CE010E945009E881F9811C
:101300000288F389E02DCE010995E82E882339F370
:1013100040E06DE0CE010E9494044A8560E0CE0179
:101320000E9494044B8560E0CE010E9494044C8599
:1013300060E0CE010E9494044D8560E0CE010E94E1
:101340009404BFB6F89460E08A8D0E94FA11888DEB
:10135000998DDC01ED91FC910190F081E02D60E828
:101360000995CF2CD02E012F015068F0888D998DD2
:10137000F60161916F01DC01ED91FC910190F0812A
:10138000E02D0995F1CF61E08A8D0E94FA11BFBE70
:1013900044E0410F62E2CE010E9494048A819B8165
:1013A000039771F043E061E0CE010E94940440E4B1
:1013B00060E4CE010E94940483E090E09B838A83E2
:1013C0008E2DDF91CF911F910F91FF90EF90DF90C5
:1013D000CF90BF900895CF93DF93FC01228133819A
:1013E00023303105B9F0EC0182819381049771F0CB
:1013F00045E061E0CF010E94940440E060E4CE014A
:101400000E94940484E090E09B838A83C35EDE4F55
:10141000888101C080E0DF91CF910895CF92DF9263
:10142000EF92FF920F931F93CF93DF93EC017B0119
:101430008A01E881F9810280F381E02D0995D82E97
:10144000882339F1E114F104E1F001151105C9F027
:10145000CFB6F8942D8D30E023503109F80180810A
:1014600090E0821793071CF09D8D94509083F801B3
:10147000408150E0BE016E5D7F4FC7010E94B036D3
:10148000CFBE8FB7F894FE01E35EFE4F10821D8E33
:101490008FBF8D2DDF91CF911F910F91FF90EF9016
:1014A000DF90CF900895DF92EF92FF920F931F93FA
:1014B000CF93DF93EC0162E10E94D0042A813B814B
:1014C0002430310519F4982F907A41F42A813B8118
:1014D00024303105A1F486FD20C011C08F85988984
:1014E0000196988B8F874FEF62E1CE01DF91CF910C
:1014F0001F910F91FF90EF90DF900C9494042A813C
:101500003B812330310509F09AC083FF98C08B8955
:101510009C8901969C8B8B8B9CC063E1CE010E94C1
:10152000D004F82E60E1CE010E94D004482F6DE077
:10153000CE010E949404DFB6F89460E08A8D0E9488
:10154000FA11888D998DDC01ED91FC910190F0816B
:10155000E02D60E009958E01025E1F4FEF2CE00E3A
:10156000E01671F0888D998DDC01ED91FC91019070
:10157000F081E02D60E00995F80181938F01F0CFB3
:1015800061E08A8D0E94FA11DFBEFD8E4FEF62E1AD
:10159000CE010E94940469E1CE010E94D0048E0124
:1015A000015E1E4F87FD8D5F85958595D8018C93D3
:1015B0006AE1CE010E94D0048E87F80190818E8569
:1015C00097FF03C0890F8E8709C0F0E18F02C00129
:1015D00011246FE070E00E9444336E87FE01E25EEA
:1015E000FE4F8081882319F08E858D5902C08E852B
:1015F000845A8E878D8DFE01E35EFE4F843090F01D
:101600008E8D8E838F8D8F8388A1888789A189870E
:101610008D8181110CC09E818C81981741F08E8143
:101620008F3F29F08081882309F45DCF12C089891A
:101630009A8901969A8B898B81E08083F3CF2A81E6
:101640003B812530310509F04ECF82FF4CCF8170B0
:101650008D8BCE010E94500946CF809191039091CD
:101660009203009711F00C94530A089580918F0310
:1016700090919003009711F00C94530A0895809173
:101680008D0390918E03009711F00C94530A0895E6
:101690004F925F926F927F928F929F92AF92BF9282
:1016A000CF92DF92EF92FF920F931F93CF93DF932E
:1016B000CDB7DEB728970FB6F894DEBF0FBECDBF0B
:1016C0008C0165E8FC0185A10E94AB14F80183A39D
:1016D00064E885A10E94AB14F80182A393A1682F4E
:1016E00070E0792B80E090E00E944B2F20E030E00A
:1016F00040E850E40E94AC2FF801668F778F80A3FA
:1017000091A367E0C8010E948513F801958B848B33
:1017100069E0C8010E948513F801978B868B6AE007
:10172000C8010E948513F801918F808F6BE0C8017A
:101730000E9485137C01F801938F828F66897789D7
:1017400080E090E00E944B2F69837A838B839C8397
:10175000F801608D718D80E090E00E944B2F4B016D
:101760005C01B70180E090E00E944B2F6B017C018F
:10177000F8016489758980E090E00E944B2F6D83A9
:101780007E838F8398872BE734E14EE050E4C501D8
:10179000B4010E94AC2F2B013C0121E73DE34AEA52
:1017A0005FE3C701B6010E94AC2F9B01AC01C301EE
:1017B000B2010E9404319B01AC016D817E818F8159
:1017C00098850E9404312B013C01F80160877187E4
:1017D000828793872DEC3CEC4CE350E4C501B401C7
:1017E0000E94AC2F4B015C0122E538EB4EED5FE32C
:1017F000C701B6010E94AC2F9B01AC01C501B40129
:101800000E9404319B01AC0169817A818B819C81AA
:101810000E9404316B017C01F8016487758786871B
:10182000978727E33FE74FEB5AE3C301B2010E94DA
:10183000AC2F4B015C012BEE3DEC49E25BE3C701B1
:10184000B6010E94AC2F9B01AC01C501B4010E94FE
:10185000053120E030E040E05FE30E94AC2FF8016A
:10186000608B718B828B938B28960FB6F894DEBFBA
:101870000FBECDBFDF91CF911F910F91FF90EF90E1
:10188000DF90CF90BF90AF909F908F907F906F90A0
:101890005F904F9008951F920F920FB60F921124F0
:1018A0002F933F934F935F936F937F938F939F9368
:1018B000AF93BF93EF93FF938091B900887F8036F9
:1018C00009F49CC068F5883209F45BC090F480315B
:1018D00009F454C038F4882309F4F6C0883009F4B8
:1018E0004DC0F6C0883109F44CC0803209F45DC0A7
:1018F000EFC0803409F468C048F4803309F455C05F
:10190000883309F0E5C080932D04D8C0803509F4F0
:101910004FC0883509F45DC0883409F0D9C0D6C0FD
:10192000883909F4C7C0A8F4883709F467C038F4C7
:10193000883609F463C0803709F460C0C9C08838AC
:1019400009F4B8C0803909F45FC0803809F0C0C01C
:101950005BC0803B09F486C038F4803A09F466C065
:10196000883A09F47FC0B4C0803C09F4A7C0883C21
:1019700009F4A4C0883B09F48AC0AAC080910A0473
:1019800010C090912C0480912B04981770F5E09171
:101990002C0481E08E0F80932C04F0E0E55FFB4F78
:1019A00080818093BB0085EC86C080932D048EC01F
:1019B000E0912C0481E08E0F80932C048091BB0079
:1019C000F0E0E55FFB4F808390912C0480912B0425
:1019D0006EC0E0912C0481E08E0F80932C048091E6
:1019E000BB00F0E0E55FFB4F808380912E04811106
:1019F0006DC081E08093090484EA61C083E0809334
:101A00002F041092D503CFCF8091D503803208F0F8
:101A100051C0E091D50381E08E0F8093D503809172
:101A2000BB00F0E0EB54FC4F8083BDCF85EC80938E
:101A3000BC0010922F048091D503803230F4E091E5
:101A4000D503F0E0EB54FC4F10826091D50370E0B9
:101A5000E0911E03F0911F0385EB93E0099510922E
:101A6000D50336C084E080932F041092B403109203
:101A7000B303E0912003F091210309958091B30312
:101A8000811105C081E08093B30310929303E0912C
:101A9000B40381E08E0F8093B403F0E0ED56FC4F69
:101AA00080818093BB009091B4038091B303981719
:101AB00008F479CF85E88093BC000AC085EC809358
:101AC000BC0010922F0404C010922D040E942B0819
:101AD000FF91EF91BF91AF919F918F917F916F9106
:101AE0005F914F913F912F910F900FBE0F901F90DC
:101AF000189510922F0481E080932E04109209040F
:101B000061E082E10E94FA1161E083E10E94FA1132
:101B1000E9EBF0E080818E7F808380818D7F808300
:101B200088E48093B80085E48093BC0008950F9307
:101B30001F93CF938C01C62F68312CF465305CF075
:101B4000653114F409C0C7E147E06DE4C8010E94A3
:101B50009404C35006C0C5E044E06DE4C8010E948F
:101B600094044BEF4C0F406869E0C801CF911F917E
:101B70000F910C9494048F929F92AF92BF92CF9248
:101B8000DF92EF92FF921F93CF93DF93EC014A0114
:101B90005B0120E034E244E759E4C501B4010E944E
:101BA000AC2F20E034E244E752E40E94A0310E94CE
:101BB00019326B017C01A7016627772766E0CE0109
:101BC0000E94940477276F2D5E2D4D2D67E0CE0186
:101BD0000E9494044C2D68E0CE010E949404C25EE1
:101BE000DE4F11E020E030EC42E454E4C501B401E2
:101BF0000E94C33287FD10E0188381E0DF91CF910E
:101C00001F91FF90EF90DF90CF90BF90AF909F908B
:101C10008F900895EF92FF920F931F93CF93DF93CE
:101C200000D01F92CDB7DEB78C010E94C101E82E13
:101C3000811102C0E12C82C0F801838D823029F02D
:101C40008330C1F7FF24F39401C0F12C40E861E038
:101C5000C8010E9494046AE070E080E090E00E9475
:101C6000661261E0C8010E94D004803819F760E074
:101C7000F801838D0E942A12F801848D8F3F49F468
:101C800080918C038430B0F691E0980F90938C0390
:101C9000848FF801948DE92FF0E0EE0FFF1FE357DA
:101CA000FC4F11830083911103C06FE37BE00AC0F6
:101CB000913019F466E37BE005C0923009F0BACFA9
:101CC0006DE27BE08F2D0E94E31540E06EE0C801DD
:101CD0000E94940440E06FE0C8010E949404C8018F
:101CE0000E94500943E050E06AE971E0CE0101969C
:101CF0000E94662C49816DE1C8010E9494044A81CA
:101D00006EE1C8010E9494044B8166E2C8010E9402
:101D1000940440E060E2C8010E94940448E061E25B
:101D2000C8010E94940440E050E069ED73E4C801EA
:101D30000E94BB0D6DE0C8010E94970D8E2D0F9083
:101D40000F900F90DF91CF911F910F91FF90EF9027
:101D50000895CF92DF92EF92FF920F931F93CF934C
:101D6000DF936C017A018B01C0E0D0E0CE15DF0576
:101D700089F0D8016D918D01D601ED91FC91019012
:101D8000F081E02DC6010995892B11F47E0102C076
:101D90002196ECCFC701DF91CF911F910F91FF905A
:101DA000EF90DF90CF900895FC01538D448D252F47
:101DB00030E0842F90E0821B930B541710F0CF96E5
:101DC000089501970895FC01918D828D981761F017
:101DD000828DDF01A80FB11D5D968C91928D9F5F62
:101DE0009F73928F90E008958FEF9FEF0895FC010D
:101DF000918D828D981731F0828DE80FF11D858DC0
:101E000090E008958FEF9FEF0895FC01918D228D52
:101E1000892F90E0805C9F4F821B91098F739927D7
:101E2000089583E794E00E94050F21E0892B09F4CF
:101E300020E0822F0895FC01848DDF01A80FB11DE1
:101E4000A35ABF4F2C91848D90E001968F739927F0
:101E5000848FA689B7892C93A089B1898C918064DD
:101E60008C93938D848D981306C00288F389E02D9E
:101E700080818F7D80830895EF92FF920F931F934F
:101E8000CF93DF93EC0181E0888F9B8D8C8D98132D
:101E900005C0E889F989808185FD24C0F62E0B8D67
:101EA00010E00F5F1F4F0F731127E02E8C8DE8128B
:101EB0000CC00FB607FCFACFE889F989808185FF4D
:101EC000F5CFCE010E941B0FF1CF8B8DFE01E80FE5
:101ED000F11DE35AFF4FF0820B8FEA89FB89808165
:101EE000806207C0EE89FF896083E889F989808173
:101EF0008064808381E090E0DF91CF911F910F910A
:101F0000FF90EF900895CF93DF93EC01888D8823A5
:101F1000C9F0EA89FB89808185FD05C0A889B98956
:101F20008C9186FD0FC00FB607FCF5CF808185FF31
:101F3000F2CFA889B9898C9185FFEDCFCE010E949F
:101F40001B0FE7CFDF91CF91089580E090E0892BC0
:101F500029F00E94110F81110C94000008953FB7E1
:101F6000F8948091DB039091DC03A091DD03B091A4
:101F7000DE0326B5A89B05C02F3F19F00196A11DD1
:101F8000B11D3FBFBA2FA92F982F8827820F911D0F
:101F9000A11DB11DBC01CD0142E0660F771F881F56
:101FA000991F4A95D1F7089508950E94AB360F9373
:101FB0001F93CF93DF93EC0188819981009729F0DB
:101FC0002A813B812617370788F48B016F5F7F4F8B
:101FD0000E94E135009761F0998388831B830A830F
:101FE0002C813D81232B11F4FC01108281E001C082
:101FF00080E0DF91CF911F910F910895EF92FF92B2
:102000000F931F93CF93DF93EC017B018A01BA01F9
:102010000E94D70F2881398181110DC0211531050A
:1020200019F0C9010E944935198218821D821C824B
:102030001B821A8206C01D830C83B701C9010E944E
:10204000CF36CE01DF91CF911F910F91FF90EF908E
:102050000895EF92FF920F931F93CF93DF93FC01AC
:10206000248135816115710511F480E019C0411595
:102070005105A9F07B01EC018A01020F131FB80181
:102080000E94D70F882389F3288139818C819D8113
:10209000B701820F931F0E94CF361D830C8381E00E
:1020A000DF91CF911F910F91FF90EF900895EF92E4
:1020B000FF920F931F93CF93DF93CDB7DEB728978F
:1020C0000FB6F894DEBF0FBECDBF7C01CB014AE056
:1020D0008E010F5F1F4FB8010E947A2CF80101900A
:1020E0000020E9F73197AF01401B510BB801C70140
:1020F0000E94291028960FB6F894DEBF0FBECDBF00
:10210000DF91CF911F910F91FF90EF90089561158E
:10211000710551F0FB0101900020E9F73197AF0103
:10212000461B570B0C94291080E00895FB01448155
:102130005581608171810C942910CF93DF93EC015C
:102140006115710559F0FB0101900020E9F7319705
:10215000AF01461B570B0E94FE0F0CC0888199816E
:10216000009711F00E944935198218821D821C8245
:102170001B821A82CE01DF91CF910895FC018081EC
:1021800091810C944935EF92FF920F931F93CF9357
:10219000DF93CDB7DEB7A1970FB6F894DEBF0FBEC1
:1021A000CDBF7C01CB01BA01F701118210821382ED
:1021B00012821582148242E0420F8E010F5F1F4F80
:1021C0000E94EA2BBC01C7010E949D10A1960FB688
:1021D000F894DEBF0FBECDBFDF91CF911F910F915D
:1021E000FF90EF900895EF92FF920F931F93CF937C
:1021F000DF93CDB7DEB7A1970FB6F894DEBF0FBE61
:10220000CDBF7C01CB01BA01F7011182108213828C
:1022100012821582148242E0420F8E010F5F1F4F1F
:102220000E94EA2BBC01C7010E949D10A1960FB627
:10223000F894DEBF0FBECDBFDF91CF911F910F91FC
:10224000FF90EF9008950F931F93CF93DF93CDB737
:10225000DEB762970FB6F894DEBF0FBECDBF8C011C
:10226000CB01F8011182108213821282158214822E
:1022700050E0BE016F5F7F4F0E946F2CBE016F5F09
:102280007F4FC8010E949D1062960FB6F894DEBF82
:102290000FBECDBFDF91CF911F910F910895FC012B
:1022A00011821082138212821582148261157105C7
:1022B00051F0FB0101900020E9F73197AF01461B77
:1022C000570B0C94FE0F08956115710579F0FB0111
:1022D00001900020E9F73197AF01461B570BDC0155
:1022E000ED91FC910280F381E02D099480E090E073
:1022F00008951F920F920FB60F9211242F933F93C0
:102300004F935F936F937F938F939F93AF93BF93FD
:10231000EF93FF9383E794E00E941B0FFF91EF91EF
:10232000BF91AF919F918F917F916F915F914F91ED
:102330003F912F910F900FBE0F901F9018951F92F5
:102340000F920FB60F9211242F938F939F93EF93B9
:10235000FF93E0918304F09184048081E0918904EB
:10236000F0918A0482FD12C0908180918C048F5F6D
:102370008F7320918D04821751F0E0918C04F0E06E
:10238000ED58FB4F958F80938C0401C08081FF91A5
:10239000EF919F918F912F910F900FBE0F901F90F3
:1023A0001895833081F028F4813099F08230A1F0C3
:1023B00008958730A9F08830B9F08430D1F4809145
:1023C00080008F7D03C0809180008F778093800094
:1023D000089584B58F7702C084B58F7D84BD08953C
:1023E0008091B0008F7703C08091B0008F7D809383
:1023F000B00008951F93CF93DF93282F30E0F901A9
:10240000EE51FE4F8491F901E253FE4FD491F90150
:10241000E654FE4FC491CC23C9F0162F81110E94BF
:10242000D111EC2FF0E0EE0FFF1FE055FE4FA5910C
:10243000B4918FB7F894111105C09C91ED2FE095E0
:10244000E92302C0EC91ED2BEC938FBFDF91CF918C
:102450001F910895CF93DF9390E0FC01E253FE4F6C
:102460002491FC01E654FE4F8491882361F190E0B1
:10247000880F991FFC01EA55FE4FC591D491FC01CC
:10248000E055FE4FA591B491611109C09FB7F89432
:102490008881209582238883EC912E230BC06230A3
:1024A00061F49FB7F8943881822F809583238883C5
:1024B000EC912E2B2C939FBF06C08FB7F894E88128
:1024C0002E2B28838FBFDF91CF9108958F929F92FB
:1024D000AF92BF92CF92DF92EF92FF926B017C019D
:1024E0000E94AF0F4B015C01C114D104E104F1045F
:1024F000F1F00E94AF0FDC01CB0188199909AA09FC
:10250000BB09883E9340A105B10570F321E0C21AD2
:10251000D108E108F10888EE880E83E0981EA11C1E
:10252000B11CC114D104E104F10419F7DDCFFF900F
:10253000EF90DF90CF90BF90AF909F908F900895D5
:102540002FB7F8946091D7037091D8038091D90385
:102550009091DA032FBF08951F920F920FB60F923A
:1025600011242F933F938F939F93AF93BF938091A9
:10257000D7039091D803A091D903B091DA03309199
:10258000D60323E0230F2D3720F40196A11DB11DA2
:1025900005C026E8230F0296A11DB11D2093D60386
:1025A0008093D7039093D803A093D903B093DA0311
:1025B0008091DB039091DC03A091DD03B091DE03F9
:1025C0000196A11DB11D8093DB039093DC03A093C2
:1025D000DD03B093DE03BF91AF919F918F913F9147
:1025E0002F910F900FBE0F901F9018951F920F9272
:1025F0000FB60F9211242F933F934F935F936F93D6
:102600007F938F939F93AF93BF93EF93FF93E0914B
:102610000201F09103010995FF91EF91BF91AF91F4
:102620009F918F917F916F915F914F913F912F91EA
:102630000F900FBE0F901F9018951F920F920FB61C
:102640000F9211242F933F934F935F936F937F9338
:102650008F939F93AF93BF93EF93FF93E09100010C
:10266000F09101010995FF91EF91BF91AF919F9179
:102670008F917F916F915F914F913F912F910F902B
:102680000FBE0F901F901895AF92BF92DF92EF92FE
:10269000FF920F931F93CF93DF931F92CDB7DEB7B7
:1026A0008C017A01FC01808169830E94391469815F
:1026B00080E195E00E94E9080E943614882321F009
:1026C00082E0A82EB12C02C0A12CB12C61E0F8014F
:1026D00080810E94A1149091DF038091E0039817FC
:1026E00031F080E195E00E949D08D82EF4CFF701EB
:1026F000D082C5010F90DF91CF911F910F91FF9074
:10270000EF90DF90BF90AF9008950F931F93CF93FA
:10271000DF931F92CDB7DEB78C01FC0184A16983E2
:102720000E943914698180E195E00E94E90880E007
:102730000E94D91362E0F80184A10E945D141092F6
:10274000E0038093DF03882351F080E195E00E944D
:102750009D08182F80E195E00E949D0802C080E04E
:1027600010E0212F30E0A901582BCA010F90DF9112
:10277000CF911F910F910895CF93DF93FC01C481F6
:10278000D581209719F41092530410C0CF31D10590
:1027900010F0CFE1D0E0FC0160817181AE0183E5F2
:1027A00094E00E94E436CD5ADB4F1882DF91CF913E
:1027B0000895382F209152049091F806213208F0A4
:1027C00049C080912F048111FCCF42E040932F0437
:1027D00030932E043FEF30932D0410922C0420935D
:1027E0002B04A2E3B4E04BE054E0FA013E2F341B8B
:1027F000321718F43D913193F9CF10920A042091C9
:102800000A04990F922B90930A0490910904913035
:1028100061F41092090490910A049093BB00909186
:10282000BC0093FDF8CF95EC01C095EE9093BC00F1
:1028300090912F049230E1F390912D049F3F79F015
:1028400080912D04803241F080912D04803331F04D
:1028500084E005C081E003C082E001C083E0109203
:1028600031041092520410923004089581E00C94C7
:10287000D91391E0909330048093F80610923104BC
:10288000109252040895CF93DF9300D0CDB7DEB7F6
:102890004A8369830E943914698180E195E00E942E
:1028A000E9084A81642F80E195E00E94E9080F90D1
:1028B0000F90DF91CF910C94361490912F049111C9
:1028C000FCCF91E090932F0490932E042FEF209350
:1028D0002D0410922C04260F20932B0490930A04AD
:1028E00090910A04880F892B80930A04809109042F
:1028F000813061F41092090480910A048093BB0036
:102900008091BC0083FDF8CF85EC01C085EE8093FB
:10291000BC0080912F048130E1F380912C04861754
:1029200010F460912C04ABE0B4E021EE33E0F90147
:102930008E2F821B861718F48D918193F9CF862FE5
:102940000895613208F060E20E945D141092E00385
:102950008093DF0308951F93CF93DF931F92CDB72A
:10296000DEB7182F69830E943914698180E195E0F0
:102970000E94E9080E94361461E0812F0E94A11490
:102980009091DF038091E003981729F080E195E0B2
:102990000E949D0801C080E00F90DF91CF911F91B0
:1029A0000895CF93DF93C82FD62F61E0809124053F
:1029B0000E94AB14DD2319F0482F4C2B0BC021E0F3
:1029C00030E0082E01C0220F0A94EAF72C2B209544
:1029D000422F48234093250561E080912405DF9133
:1029E000CF910C9443141F93CF93DF931F92CDB7D5
:1029F000DEB7182F69830E943914698180E195E060
:102A00000E94E90880E00E94D91362E0812F0E94B1
:102A1000A1149091DF038091E003981779F080E191
:102A200095E00E949D08182F80E195E00E949D0886
:102A300020E030E0312F822B932B02C080E090E029
:102A40000F90DF91CF911F9108950E94F314982762
:102A5000892798270895CF93DF93CCE1D5E061E0F3
:102A600088850E94AB148987DF91CF910895CF9319
:102A700062E00E94A1149091DF038091E003981717
:102A800079F080E195E00E949D08C82F80E195E0F3
:102A90000E949D0820E030E03C2F822B932B02C047
:102AA00080E090E0CF910895CF92DF92EF92FF9275
:102AB0000F931F93CF93DF93062FEC0110E060E09C
:102AC00070E0CB01E991EE2311F1EE32F1F020ED4F
:102AD0002E0F2A30E0F4AAE0B0E09B01AC010E9486
:102AE00089300E2E000CFF0BAF01405351096A01D3
:102AF000550FEE08FF086C0D7D1D8E1D9F1D1123C7
:102B000009F31F5F0117F0F602C011E0DBCFDF9180
:102B1000CF911F910F91FF90EF90DF90CF9008958C
:102B200080335CF08A3314F48053089581342CF0A0
:102B3000873414F487530895089580E00895CF935F
:102B4000DF93BC0183E794E00E946411EC0164ED23
:102B500071E083E794E00E9464118C0F9D1FDF9168
:102B6000CF910895CF92DF92EF92FF921F93CF9370
:102B7000DF93162FEC0160E070E0CB01E99120EDCE
:102B80002E0F2A30C0F41123B1F0AAE0B0E09B016F
:102B9000AC010E9489300E2E000CFF0BAF01405398
:102BA00051096A01550FEE08FF086C0D7D1D8E1D41
:102BB0009F1D1150E3CFDF91CF911F91FF90EF90B8
:102BC000DF90CF9008958230B8F4E82FF0E0EE0F58
:102BD000FF1FE050FF4F71836083813039F0809197
:102BE0006900836080936900E89A08958091690084
:102BF0008C6080936900E99A0895CF93DF93CDB7F5
:102C0000DEB7CB57D1090FB6F894DEBF0FBECDBFEC
:102C1000789484B5826084BD84B5816084BD85B5B7
:102C2000826085BD85B5816085BD80916E008160C3
:102C300080936E0010928100809181008260809369
:102C4000810080918100816080938100809180006B
:102C50008160809380008091B10084608093B10096
:102C60008091B00081608093B00080917A00846090
:102C700080937A0080917A00826080937A008091BC
:102C80007A00816080937A0080917A0080688093D6
:102C90007A001092C10010923A031092390361E059
:102CA0008EE00E942A1261E08FE00E942A1261E009
:102CB00080E10E942A1288EF8093BA008DE598E0A7
:102CC000909321038093200389E698E090931F035B
:102CD00080931E031092E0031092DF0310923104E0
:102CE000109252040E94790D85EA91E0909323039B
:102CF0008093220388E093E090932503809324033C
:102D00000FB6F894A8958091600088618093600068
:102D1000109260000FBE99E288E10FB6F894A89572
:102D2000809360000FBE909360000E94A012609399
:102D3000820370938303809384039093850361E0FF
:102D40008EE00E94FA1111E080913703813011F476
:102D50000E94FD040E94A012C0908203D0908303C1
:102D6000E0908403F0908503DC01CB018C199D0970
:102D7000AE09BF0981319742A105B10530F010932A
:102D80003B0360E08EE00E94FA1180913B038823B0
:102D900011F40C94C92881E080933A03809339039D
:102DA00088ED95E00E940A0E811124C06AE871E066
:102DB000CE0101960E944F1161E0CE0101960E9462
:102DC0008607CE0101960E94BE1061E08EE00E944F
:102DD000FA1164E670E080E090E00E94661260E024
:102DE0008EE00E94FA1164E670E080E090E00E94BC
:102DF0006612EBCF40E050EC64E674E488ED95E0B9
:102E00000E94BB0D67E188ED95E00E94970D82E17D
:102E10008093DC058093E30581E18093E20566EA17
:102E200071E0CE0101960E944F1161E0CE01019642
:102E30000E948607CE0101960E94BE1068EB71E0E9
:102E4000CE0101960E944F1160E0CE0101960E94D2
:102E50008607CE0101960E94BE1040E162E170E05B
:102E6000CE0101960E94231161E0CE0101960E94DD
:102E70008607CE0101960E94BE100E94A01240E07B
:102E800061E0809124050E94431440E063E080915A
:102E900024050E94431460E08EE00E94FA1161E074
:102EA00080E10E94FA1169EC71E0CE0101960E9466
:102EB0004F1161E0CE0101960E948607CE01019676
:102EC0000E94BE100E94A01200917E0310917F0309
:102ED00020918003309181030E5C1F4F2F4F3F4F95
:102EE000061717072807390758F4A8950E94A0125B
:102EF00060937E0370937F0380938003909381039C
:102F00000E94A0120091760310917703209178031C
:102F1000309179030F5F1F4F2F4F3F4F0617170751
:102F20002807390708F084C30E94A01200912E05DB
:102F300010912F052091300530913105DC01CB0136
:102F4000801B910BA20BB30B85369105A105B10532
:102F500008F464C31091D705812F0E9439146DEFD6
:102F600080E195E00E94E90880E00E94D91362E0C8
:102F7000812F0E94A11480E195E00E949D08182FE6
:102F800080E195E00E949D086F961FAF6F976E9647
:102F90001FAE6E976F96CEACDFAC6F97C82AD92A5A
:102FA000C114D10459F40E94A01260932E057093AD
:102FB0002F05809330059093310530C38091D7055C
:102FC0000E9439146FEF80E195E00E94E9080E94A9
:102FD000361400E010E022242394312C0C151D053A
:102FE00014F761E08091D7050E94A1149091DF034E
:102FF0008091E003981791F080E195E00E949D0890
:10300000843269F430923E0520923D0580933F055D
:1030100010923B0581E080933C05FDC280E0409129
:103020003D0550913E058D3009F0D5C22A013FEF94
:10303000431A530A50923E0540923D05FA01EA5D5B
:10304000FA4F118E052C000C6608770877FE28C011
:10305000E0917304F09174040190F081E02D6DE231
:1030600083E794E0099522273327A901241935091C
:103070004609570919A2CE0181967C01CA01B901FE
:103080002AE030E040E050E00E94D330605DD7019C
:103090006E937D01211531054105510579F717C062
:1030A000A301920119A2FE01B1967F01CA01B901E3
:1030B0002AE030E040E050E00E94D330605DD7016C
:1030C0006E937D01211531054105510579F7B70151
:1030D00083E794E00E94641164ED71E083E794E07B
:1030E0000E94641146E050E067ED71E08FE395E0E7
:1030F0000E94D636892B09F08CC1E0913D05F091F4
:103100003E05EA5DFA4F85898A3209F084C28FE371
:1031100095E00E949F1580913D0590913E05FC0130
:10312000EA5DFA4F7F0186890E949015982ED7019B
:1031300057968C910E949015B0E19B9E800D1124B2
:1031400090913B05981367C281E0809337056CE24C
:1031500070E08FE395E00E94C43601967C0162E046
:103160000E9454156093B7057093B8058093B90514
:103170009093BA056CE270E0C7010E94C4364C011E
:103180007C01EFEFEE1AFE0A64E0C7010E945415BD
:10319000DC01CB010196A11DB11D8093BB0590936D
:1031A000BC05A093BD05B093BE0562E0C7010E94B7
:1031B000B2159B01AC0164E0C4010396EC962FAFFD
:1031C000EC97E9963FAFE997EA964FAFEA97EB960F
:1031D0005FAFEB970E9454154B015C01EC962FAD4D
:1031E000EC97E9963FADE997EA964FADEA97EB96F3
:1031F0005FADEB9760E876E988E990E00E943433B0
:103200002B013C01A2E3B0E0A50194010E948930AA
:1032100023E030E040E050E00E946A30420E531E4E
:10322000641E751E4092BB055092BC056092BD05A0
:103230007092BE056CE270E0C7010E94C436FC01CA
:1032400001962181233581F47094609450944094C8
:10325000411C511C611C711C4092BB055092BC0565
:103260006092BD057092BE056CE270E00E94C436AB
:103270004C017C01FFEFEF1AFF0A64E0C7010E94D6
:103280005415DC01CB010196A11DB11D8093BF0532
:103290009093C005A093C105B093C20563E0C70138
:1032A0000E94B2159B01AC0164E0C4010496EC9647
:1032B0002FAFEC97E9963FAFE997EA964FAFEA97C1
:1032C000EB965FAFEB970E9454154B015C01EC96B7
:1032D0002FADEC97E9963FADE997EA964FADEA97A7
:1032E000EB965FADEB9760E876E988E990E00E94A5
:1032F00034332B013C01A2E3B0E0A50194010E940C
:10330000893023E030E040E050E00E946A30420E15
:10331000531E641E751E4092BF055092C0056092F8
:10332000C1057092C2056CE270E0C7010E94C4360C
:10333000FC0101962181273581F4709460945094AA
:103340004094411C511C611C711C4092BF0550925D
:10335000C0056092C1057092C2056CE270E00E94E7
:10336000C43601967C0161E00E94B215762E60930E
:1033700039056CE270E0C7010E94C43601967C01F9
:1033800062E00E94B2154B017093D2056093D105A3
:103390006CE270E0C7010E94C43601962C0161E026
:1033A0000E9454157B017093C8056093C7056CE2B9
:1033B00070E0C2010E94C43661E001960E9454157B
:1033C0002AE030E040E050E00E946A302093C305DC
:1033D0003093C4054093C5055093C605711003C0D2
:1033E00010923A0518C125E08216910410F481E08C
:1033F0000BC03FE1E316F10410F082E005C04AE1A2
:10340000E416F10420F083E080933A0504C184E0DF
:10341000FBCF46E050E06EED71E08FE395E00E9457
:10342000D636892B09F069C0E0913D05F0913E0543
:10343000EA5DFA4F85898A3209F0EDC08FE395E0A5
:103440000E949F1580913D0590913E05DC01AA5D8B
:10345000BA4F7D0156968C910E949015982EF701D7
:1034600087890E949015F0E19F9E800D1124909114
:103470003B059813D0C06CE270E08FE395E00E94AA
:10348000C43601967C0162E00E9454157093CC050D
:103490006093CB056CE270E0C7010E94C4366CE219
:1034A00070E001960E94C4366CE270E001960E94C2
:1034B000C4366CE270E001960E94C4366CE270E0A3
:1034C00001960E94C4366CE270E001960E94C436F8
:1034D00062E001960E9454159B01AC01AAE0B0E0A5
:1034E0000E94893024E230E040E050E00E946A30DF
:1034F0003093CA052093C9058EC046E050E065EEC2
:1035000071E08FE395E00E94D636892B09F066C002
:10351000E0913D05F0913E05EA5DFA4F85898A32DA
:1035200009F079C08FE395E00E949F1580913D05D9
:1035300090913E059C012A5D3A4F7901D90156963A
:103540008C910E949015982EF70187890E94901502
:10355000F0E19F9E800D112490913B0598135BC074
:103560006CE270E08FE395E00E94C4366CE270E09C
:1035700001960E94C4366CE270E001960E94C43647
:103580006CE270E001960E94C4366CE270E0019635
:103590000E94C4366CE270E001960E94C4366CE270
:1035A00070E001960E94C4366CE270E001960E94C1
:1035B000C4366CE270E001960E94C43661E0019668
:1035C0000E9454156093CD057093CE058093CF056E
:1035D0009093D00520C0473751052CF010923E053E
:1035E00010923D0518C08A3211F410923C059A01E0
:1035F0002F5F3F4F30933E0520933D05FA01EA5D72
:10360000FA4F818F90913C05992329F090913B05C9
:10361000892780933B050F5F1F4FE0CC0E94A012CB
:103620006093760370937703809378039093790384
:103630000E94A012009172031091730320917403F1
:10364000309175030C591F4F2F4F3F4F0617170727
:103650002807390710F00C94B42768EB7BE088ED5D
:1036600095E00E947F02882311F40C949E2785E048
:103670008093360346E353E061E373E088ED95E021
:103680000E940E0A60E0882311F40C949C278EE0BF
:103690000E94FA1161E08FE00E94FA118091E60524
:1036A000082E000C990B9093300380932F03CC24A9
:1036B000C394C0922E036CEE71E09E012F5F3F4FCA
:1036C0007901C9010E944F1160E0C7010E9486077D
:1036D000C7010E94BE108091310318A61FA21AA62E
:1036E00019A61CA61BA64AE0B70190E00E94B62CC2
:1036F0008E01095D1F4FB701C8010E949D1061E056
:10370000C8010E948607C8010E94BE1020913203A2
:1037100020936403D0903303D092650380913103EA
:10372000863009F462C7A8F4833009F424C640F453
:10373000813009F458C0823009F402C60C949327F2
:10374000843011F40C942B26853009F4C7C60C94F0
:103750009327893011F40C944E2548F4873009F4EE
:10376000BCC7883011F40C947F240C9493278A30C2
:1037700011F40C942E268F3F11F00C94932780E2C5
:10378000E3E5F4E0DF011D928A95E9F788E0E6E2DF
:10379000F3E0DF011D928A95E9F766ED71E0C7015C
:1037A0000E944F1165EA72E0C7010E948710609184
:1037B000E605062E000C770BC7010E94571061E743
:1037C00072E0C7010E94871062E170E0C7010E94A9
:1037D000571065E272E0C7010E948710C7010E947E
:1037E000BC13C701FFC680E2E3E5F4E0DF011D92F0
:1037F0008A95E9F766ED71E0C8010E944F1186E7EE
:103800000E942506882309F48FC568E886E70E9490
:1038100025157C016AE886E70E9425156C016CE895
:1038200086E70E9425152D969FAF8EAF2D976EE8E7
:1038300086E70E942515A9969FAF8EAFA99760E9EC
:1038400086E70E942515E2968FAFE297A2969FAF7A
:10385000A29762E986E70E942515E3968FAFE3976A
:10386000A3969FAFA39764E986E70E942515E49687
:103870008FAFE497A4969FAFA49766E986E70E946E
:103880002515E5968FAFE59768969FAF689768E92D
:1038900086E70E94251567968FAF679766969FAF5C
:1038A00066976AE986E70E942515E6968FAFE69748
:1038B000A5969FAFA5976CE986E70E942515E79628
:1038C0008FAFE797A6969FAFA6976EE986E70E940F
:1038D0002515E8968FAFE897A7969FAFA79761EA5F
:1038E00086E70E94AB14082F61EE86E70E9425153B
:1038F0001C0163EE86E70E94AB14182F64EE86E786
:103900000E94AB14982E65EE86E70E94AB148F7070
:10391000B0E19B9E90011124F901E82B2896FFAF9E
:10392000EEAF289766EE86E70E94AB14982E65EE00
:1039300086E70E94AB14482E512CC20144E09595B5
:1039400087954A95E1F7F0E19F9E200111249C01A3
:10395000242935292F963FAF2EAF2F9767EE86E7A4
:103960000E94AB142B968FAF2B9741E062EF86E756
:103970000E9443144FE364EF86E70E9443146AEF0A
:1039800086E70E94AB14982E6BEF86E70E94AB147B
:1039900090E0A0E0B0E054E0880F991FAA1FBB1F81
:1039A0005A95D1F7492D50E060E070E0ECE0440F0B
:1039B000551F661F771FEA95D1F74C015D01842AD8
:1039C000952AA62AB72A6CEF86E70E94AB14C70196
:1039D000A0E0B0E0B501A401F4E0759567955795B6
:1039E0004795FA95D1F72A013B01481A590A6A0A04
:1039F0007B0AB501A40123E0759567955795479516
:103A00002A95D1F7880F991FAA1FBB1F9A01AB01F6
:103A1000281B390B4A0B5B0BD6010E9494306B01BB
:103A20007C014BE0F594E794D794C7944A95D1F77D
:103A3000A3019201C301B2010E9434339B01AC0186
:103A40006CE055954795379527956A95D1F72D9652
:103A5000AEADBFAD2D970E9494304B015C017EE06E
:103A6000B594A794979487947A95D1F78C0C9D1C64
:103A7000AE1CBF1CA5E0B0E0A50194010E948930F6
:103A8000DC01CB0180589F4FAF4FBF4F692F7A2F7A
:103A90008B2F992787FD9A950E944D2F20E030E0CB
:103AA00048EC52E40E94A031AD966CAF7DAF8EAF72
:103AB0009FAFAD976DEF86E70E94F31424013501A7
:103AC0003CE2531A31E0630A71086C01E12CF12CDD
:103AD000FEE0CC0CDD1CEE1CFF1CFA95D1F72896FD
:103AE0008EAD9FAD2897AC01990F660B770BA4E1C3
:103AF000440F551F661F771FAA95D1F7C41AD50A20
:103B0000E60AF70A2F96AEADBFAD2F97A30192013B
:103B10000E949430C61AD70AE80AF90A90E4D90E2E
:103B2000E11CF11CBFE0F594E794D794C794BA95D3
:103B3000D1F72B96EFAD2B97AE2FEE0FBB0B0E945C
:103B400094309B01AC018AE05595479537952795B0
:103B50008A95D1F72A962CAF3DAF4EAF5FAF2A972B
:103B6000A12FB0E0A30192010E948930DC01CB01BA
:103B70002BE0B595A795979587952A95D1F7BC0128
:103B8000CD0170588F4F9F4F2A962CAD3DAD4EAD55
:103B90005FAD2A970E943433DC01CB013AE0B59542
:103BA000A795979587953A95D1F79C01AD01405E11
:103BB0005F4FD1010E949430DC01CB01905EAF4F8A
:103BC000BF4FBC01CD014EE09595879577956795E0
:103BD0004A95D1F7A70196010E9434336B017C010D
:103BE0005FE095958795779567955A95D1F79B01F5
:103BF000AC010E9434339B01AC0167E055954795B9
:103C0000379527956A95D1F7A02FB0E00E948930AB
:103C1000DC01CB0174E0B595A795979587957A95CA
:103C2000D1F7C81AD90AEA0AFB0AF7FE03C0C12C69
:103C3000D12C7601D701C60131E0C316D104E104CD
:103C400039E1F30624F080E090E0A0E0B9E1BC01A6
:103C5000CD013CE095958795779567953A95D1F795
:103C60000E944D2F20E030E040E85AE30E94AC2F44
:103C7000E1966CAF7DAF8EAF9FAFE19786E70E9474
:103C8000391467EF80E195E00E94E90880E00E9426
:103C9000D91363E086E70E94A1149091DF0380911D
:103CA000E003981789F180E195E00E949D086C017E
:103CB000990FEE08FF0844245C2C6D2C7E2C80E1CB
:103CC00095E00E949D086C01990FEE08FF08C4283A
:103CD000D528E628F72880E195E00E949D08FE2C73
:103CE000ED2CDC2CCC24AC01990F660B770BD701A3
:103CF000C601842B952BA62BB72B61968CAF9DAF5D
:103D0000AEAFBFAF619706C061961CAE1DAE1EAED2
:103D10001FAE619775016401FF0CCC08DC2C7601A5
:103D20009401A5016C2D7C2D8C2D9C2D345F414080
:103D30005109610971098109910927962FAF2797C8
:103D4000232E2A013B014C01A22EB32E6A017B01D6
:103D50008C010E9458332B962FAF2B972C963FAF98
:103D60002C9762964FAF629763965FAF63976496A6
:103D70006FAF649765967FAF6597A0968FAFA0975A
:103D8000A1969FAFA1976796AFAC679766961FAD58
:103D90006697110F110B6696BFAC6697C12ED12E98
:103DA000E12EF12E012F0E94583366962FAF6697B1
:103DB000332E67964FAF679769965FAF69976A969C
:103DC0006FAF6A976B967FAF6B976C968FAF6C9760
:103DD0006D969FAF6D97E596AFACE59768961FAD72
:103DE0006897110F110B6896BFAC6897C12ED12E42
:103DF000E12EF12E012F27962FAD2797322DA2010C
:103E0000B301C4010E94583301E10E9451345901A9
:103E10006A017B018C0166962FAD6697332D6796FC
:103E20004FAD679769965FAD69976A966FAD6A9770
:103E30006B967FAD6B976C968FAD6C976D969FADC3
:103E40006D970E94883468962FAF689766963FAF4B
:103E5000669767964FAF679769965FAF69976A965F
:103E60006FAF6A976B967FAF6B976C968FAF6C97BF
:103E70006D969FAF6D97E296AFACE297A2961FAD9D
:103E8000A297110F110BA296BFACA297C12ED12EF3
:103E9000E12EF12E012F27962FAD2797322DA2016B
:103EA000B301C4010E9458330CE00E94513419013F
:103EB0002A013B014C01E396AFACE397A3961FADFB
:103EC000A397110F110BA396BFACA397C12ED12EB0
:103ED000E12EF12E012F2B962FAD2B972C963FAD77
:103EE0002C9762964FAD629763965FAD6397649629
:103EF0006FAD649765967FAD6597A0968FADA097DF
:103F0000A1969FADA1970E94583308E00E946A34A1
:103F100051016201730184010E94883470588F4FEF
:103F20009F4FA996AEADBFADA9975D01C12CD12C15
:103F3000E12CF12C00E010E00E945833422E332E89
:103F4000242E27965FAF27972B966FAF2B972C9633
:103F50007FAF2C9762968FAF629763969FAF639700
:103F600061964CAD5DAD6EAD7FAD6197B4E075957A
:103F7000679557954795BA95D1F780E090E0A0E115
:103F8000B0E0841B950BA60BB70B6C017D01FF0CF9
:103F9000CC08DC2C76019C01AD016C2D7C2D8C2D88
:103FA0009C2D0FE10E94513439014A01B62FA72FF1
:103FB000F82FE92FE4962FADE497A4969FADA49730
:103FC000990F990BA4963FADA497492F592F692FAC
:103FD000792F892F03E20E94513459016A017B0134
:103FE0008C0168962FAD689766963FAD6697679689
:103FF0004FAD679769965FAD69976A966FAD6A979F
:104000006B967FAD6B976C968FAD6C976D969FADF1
:104010006D970E94883459016A017B018C019301DC
:10402000A4016B2F7A2F8F2F9E2F0E949134722E16
:10403000832E942EB52FA62FF72FE82F592E03E0AD
:104040000E945134A72CB82CC92CDB2EEA2EFF2E4F
:104050000E2F152D0E94913459016A017B01682EA3
:10406000192F03E00E945134062D0E94913403E081
:104070000E945134A72CB82CC92CDB2EEA2EFF2E1F
:104080000E2F152D0E94913402E00E9451340E2F04
:104090000E94913401E00E9451340E2F0E9491340D
:1040A00039014A01B62FA72FF82FE92F242D332DE0
:1040B000422D27965FAD27972B966FAD2B972C96A9
:1040C0007FAD2C9762968FAD629763969FAD639795
:1040D00001E20E946A3459016A017B018C0193015B
:1040E000A4016B2F7A2F8F2F9E2F0E94B333279618
:1040F0002FAF27972E963FAF2E972B964FAF2B972C
:104100002C965FAF2C9762966FAF629763967FAFE6
:10411000639764968FAF649765969FAF65970DE040
:104120000E946A34322E292EE8962FADE897A79682
:104130009FADA797990F990BA32CB32EC42ED52E04
:10414000E62EF72E082F122DA7963FADA797492FE1
:10415000592F692F792F892F0E9458330E94583385
:1041600009E10E946A3459016A017B018C0127969A
:104170002FAD27972E963FAD2E972B964FAD2B97B1
:104180002C965FAD2C9762966FAD629763967FAD6C
:10419000639764968FAD649765969FAD65970E940F
:1041A000883419012A013B014C01E7962FADE797AE
:1041B000A6969FADA697990F990B2796AFAC279718
:1041C0002E96BFAC2E972B96CFAC2B972C96DFACB0
:1041D0002C976296EFAC62976396FFAC63976496F8
:1041E0000FAD649765961FAD6597A6963FADA697F0
:1041F000492F592F692F792F892F0E94583303E1B6
:104200000E946A3459016A017B018C019101A2016B
:10421000B301C4010E94883408E00E946A34190185
:104220002A013B014C016BEF71E0CE0187960E94A1
:10423000871020E030E0A901AD966CAD7DAD8EAD6C
:104240009FADAD970E940531AB01BC0122E0CE01CC
:1042500001960E94F310BE016F5F7F4FCE018796DB
:104260000E949610CE0101960E94BE1061E772E096
:10427000CE0187960E94871021E0E1964CAD5DAD9E
:104280006EAD7FADE197CE0101960E94F310BE01A5
:104290006F5F7F4FCE0187960E949610CE010196E8
:1042A0000E94BE1061E772E0CE0187960E948710DF
:1042B000E6962FADE697A5969FADA597990F990B1A
:1042C000A5963FADA597492F592F692F792F892F93
:1042D00004E00E94513459016A017B018C01910173
:1042E000A201B301C4010E9488340E94483220E038
:1042F00030E040E85BE30E94AC2FAB01BC0121E061
:10430000CE0101960E94F310BE016F5F7F4FCE0178
:1043100087960E949610CE0101960E94BE1065E21B
:1043200072E0CE01879603C062E072E0C8010E948D
:104330008710CE0187960E94BC13CE01879652C18A
:1043400080E2E3E5F4E0DF011D928A95E9F766ED8E
:1043500071E0C8010E944F118CE10E94250688235C
:1043600011F40C945C2B8AE60E94250681110C94B2
:10437000C0290C945C2B80E2E3E5F4E0DF011D92A0
:104380008A95E9F766ED71E0CE01C8960E944F115B
:1043900080E10E942506882311F40C94632B89E2A6
:1043A0000E942506882311F40C94632B80E18DA3D1
:1043B00089E28EA319861A861B861C861D861E8698
:1043C0001F86188A198A1A8A1B8A1C8A1F8E18A2AD
:1043D00019A21AA21E8A1D8A188E1F8A1A8E198E79
:1043E0001C8E1B8E80E10E94391460E080E195E014
:1043F0000E94E90860E180E195E00E94E90860E040
:1044000080E195E00E94E9080E94361443E060E8EC
:104410008EA10E94431442E061E88EA10E944314E1
:10442000C7010E94480BC7010E94480B66EC72E06E
:10443000CE01C8960E94871049855A856B857C8578
:1044400020E0C8010E94F310B801CE01C8960E9476
:104450009610C8010E94BE1061E772E0CE01C896B6
:104460000E9487104D855E856F85788920E0C801A0
:104470000E94F310B801CE01C8960E949610C801A0
:104480000E94BE1061E772E0CE01C8960E948710BC
:1044900049895A896B897C8921E0C8010E94F310FF
:1044A000B801CE01C8960E949610C8010E94BE10A5
:1044B00061E772E0CE01C8960E9487104F8D58A127
:1044C00069A17AA120E0C8010E94F310B801CE01D1
:1044D000C8960E949610C8010C94602B80E2E3E518
:1044E000F4E0DF011D928A95E9F766ED71E0C801FD
:1044F0000E944F1182E40E942506882309F469C0B6
:104500006091C7057091C80580E090E00E944B2F34
:1045100020E030E040E251E40E94A03120E030E0B1
:1045200040EA50E40E94462F87FF50C065E172E0E8
:10453000C8010E949D106091CD057091CE058091BB
:10454000CF059091D0052AE0A7010E94852CF701A4
:1045500001900020E9F73197AF014E195F09B701CB
:10456000C8010E94291061E772E0C8010E9487100B
:104570006091B7057091B8058091B9059091BA0521
:104580000E944D2F2AE037ED43E25CE30E94AC2FFE
:10459000AB01BC0120E0C7010E94C310B701C801F4
:1045A0000E949610C7010E94BE108091B70590919D
:1045B000B805A091B905B091BA05809344039093D2
:1045C0004503A0934603B09347037BC06CE172E0C0
:1045D00002C068E272E0C8010E949D10C8010E94FA
:1045E000BC13C8010E94BE10A4C480E2E3E5F4E05D
:1045F000DF011D928A95E9F766ED71E0C8010E941E
:104600004F1182E40E942506882309F463C060915B
:10461000C7057091C80580E090E00E944B2F20E014
:1046200030E040E251E40E94A03120E030E040EA76
:1046300050E40E94462F87FF4AC064E372E0C8013D
:104640000E949D106091BB057091BC058091BD05D5
:104650009091BE050E944D2F25E93FEB46ED53E3B7
:104660000E94AC2FAB01BC0125E0C7010E94C31022
:10467000B701C8010E949610C7010E94BE1061E7F1
:1046800072E0C8010E9487106091BF057091C0055B
:104690008091C1059091C2050E944D2F25E93FEB05
:1046A00046ED53E30E94AC2FAB01BC0125E0C701EE
:1046B0000E94C310B701C8010E949610C7010E9452
:1046C000BE1065E272E0C8010E94871087CF6BE3DD
:1046D00072E081CF67E472E07ECF80E2E3E5F4E050
:1046E000DF011D928A95E9F766ED71E0CE01C8966B
:1046F0000E944F1182E40E942506882309F4F2C02B
:1047000063E572E0CE01C8960E949D106091C705D6
:104710007091C80580E090E00E944B2F20E030E0CF
:1047200040E251E40E94A0310E9412324AE0C701E7
:104730000E942311B701CE01C8960E949610C701AE
:104740000E94BE1061E772E0CE01C8960E948710F9
:104750006091D1057091D20580E090E00E944B2FCE
:1047600020E030E048EC52E40E94A0310E9419326F
:10477000862F18A61FA21AA619A61CA61BA64AE0D9
:10478000B70190E00E94B62CB701C8010E949D10AD
:10479000B801CE01C8960E949610C8010E94BE10B2
:1047A00061E772E0CE01C8960E9487106091C7054C
:1047B0007091C80580E090E00E944B2F20E030E02F
:1047C00040E251E40E94A03120E030E040EA50E4B1
:1047D0000E94462F87FF79C06CEF72E0CE01C89629
:1047E0000E9487106091C3057091C4058091C50532
:1047F0009091C60518A61FA21AA619A61CA61BA64C
:104800002AE0A7010E94852CB701C8010E949D10D3
:10481000B801CE01C8960E949610C8010E94BE1031
:104820006091C3057091C4058091C5059091C6053E
:104830000E944D2F60934C0370934D0380934E0361
:1048400090934F0361E772E0CE01C8960E948710F3
:104850006091C9057091CA0580E090E00E944B2FDD
:1048600020E030E048EC52E40E94A031AB01BC01F2
:1048700021E0C7010E94F310B701CE01C8960E9443
:104880009610C7010E94BE1061E772E0CE01C89683
:104890000E9487106091CB057091CC0580E090E07C
:1048A0000E944B2F20E030E048EC52E40E94A031FF
:1048B000AB01BC0121E0C7010E94F310B701CE019A
:1048C000C8960E949610C701FBC66AE572E0CE0149
:1048D000C8960E94871065E272E0CE01C8960E94D9
:1048E000871006C06CE572E0CE01C8960E949D104C
:1048F000CE01C8960E94BC13CE01C89673CE80E24A
:10490000E3E5F4E0DF011D928A95E9F766ED71E0D9
:10491000C8010E944F1168E672E0C8010E9487102A
:104920006091E605062E000C770B4AE0C7010E9455
:104930002311B701C8010E949610C7010E94BE1042
:104940006FE672E0C8010E94871082E40E9425068B
:10495000882309F4A0C063E772E0C8010E948710B1
:104960006091C7057091C80580E090E00E944B2FD0
:1049700020E030E040E251E40E94A03120E030E04D
:1049800040EA50E40E94462F87FF7FC020914803F1
:104990003091490340914A0350914B0360914C037D
:1049A00070914D0380914E0390914F030E9404310A
:1049B0004B015C018091440390914503A091460313
:1049C000B0914703409040035090410360904203F0
:1049D00070904303BC01CD016419750986099709DC
:1049E00028EE33E040E050E00E946A30CA01B9018D
:1049F0000E944D2F9B01AC01C501B4010E94A03162
:104A00004B015C0160933C0370933D0380933E0334
:104A100090933F039B01AC010E941A3322E088234C
:104A200039F040E050E0BA01C7010E94C31005C050
:104A3000B501A401C7010E94F310B701C8010E948B
:104A40009610C7010E94BE1080914C0390914D03B7
:104A5000A0914E03B0914F03809348039093490374
:104A6000A0934A03B0934B03809144039091450374
:104A7000A0914603B0914703809340039093410374
:104A8000A0934203B09343031CCE6AE572E0C801D1
:104A90000E94871016CE6AE772E015CE66E872E0D3
:104AA000C701EC962FAFEC970E944F1160E0C70151
:104AB0000E948607C7010E94BE10EC962FADEC97AE
:104AC000223009F46DC0B8F5213009F0C4C061E0AE
:104AD00081E0EC962FAFEC970E94D1146AE572E06A
:104AE000C7010E944F1161E0C7010E948607C701FC
:104AF0000E94BE10EC962FADEC97209360030E94AD
:104B0000A01228EE33E0D29EA001D39E500D1124B6
:104B10008A01550F220B330BDC01CB01800F911F53
:104B2000A21FB31F8093500390935103A09352038D
:104B3000B093530390C0233009F460C0243009F0CF
:104B40008AC061E088E00E94D11460E972E0C70188
:104B50000E944F1161E0C7010E948607C7010E94B1
:104B6000BE1081E0809363030E94A01228EE33E020
:104B7000D29EA001D39E500D11248A01550F220B05
:104B8000330BDC01CB01800F911FA21FB31F809359
:104B90005C0390935D03A0935E03B0935F035BC0DF
:104BA00061E082E00E94D11464EA71E0C7010E94D2
:104BB0004F1161E0C7010E948607C7010E94BE1025
:104BC000C09261030E94A01228EE33E0D29EA001A1
:104BD000D39E500D11248A01550F220B330BDC019B
:104BE000CB01800F911FA21FB31F8093540390939A
:104BF0005503A0935603B09357032DC061E084E0A2
:104C00000E94D1146EE872E0C7010E944F1161E06A
:104C1000C7010E948607C7010E94BE10C0926203AE
:104C20000E94A01228EE33E0D29EA001D39E500D28
:104C300011248A01550F220B330BDC01CB01800FAD
:104C4000911FA21FB31F8093580390935903A09301
:104C50005A03B0935B030E942E066BC180E2E3E52A
:104C6000F4E0DF011D928A95E9F766ED71E0CE016F
:104C7000CE960E944F118AE50E942506882309F4EA
:104C800045C18AE589831F861E86198A188A20E015
:104C900030E44CE156E42A833B834C835D831E82DF
:104CA0001F82188619861A8A1B8A1C8A1D8A1B86EF
:104CB0001A861D861C8681E18FA385EE88A782E770
:104CC00089A78AE88AA71092E0031092DF03109266
:104CD0003104109252040E94790D25961FAE25973B
:104CE00080E197E225962FAD25972F5F25962FAF70
:104CF00025970197B9F79091DF038091E00398170A
:104D000029F080E195E00E949D08F5CF18AEAE0134
:104D1000485C5F4F60E2C7010E944413009741F472
:104D200031E020E088AD813809F430E0832F922F04
:104D3000892B09F064C089810E9439146FEF80E1EA
:104D400095E00E94E908680164E0B62EB00ED60135
:104D50006D916D0180E195E00E94E908BC10F7CFEC
:104D60000E94361426961FAE269780E89EE326966C
:104D70002FAD26972F5F26962FAF26970197B9F76D
:104D8000AE01485C5F4F60E0C7010E94441388ADEC
:104D900080FD35C0AE01485C5F4F60E0C7010E94F6
:104DA0004413892B61F588AD84FF29C089810E9455
:104DB000391464EF80E195E00E94E9080E943614FE
:104DC00081111DC0AE01485C5F4F61E0C7010E94C8
:104DD0004413892BA1F488AD8F788061D82E88AFD9
:104DE00089810E94391461E080E195E00E94E90820
:104DF0006D2D80E195E00E94E9080E943614A8011B
:104E000060E0C7010E944413892B09F07FC08FA185
:104E100083FF7CC089810E94391462E080E195E0C3
:104E20000E94E9080E943614811133C064E0898130
:104E30000E94A114780154E0D52ED00E9091DF038A
:104E40008091E003981751F0DE1441F080E195E085
:104E50000E949D08F70181937F01F0CF9091DF03BD
:104E60008091E003981729F080E195E00E949D0869
:104E7000F5CF8FA190E0982F882728A5822B9D87BA
:104E80008C8789A590E0982F88272AA5822B9B875D
:104E90008A8762E972E0CE01CE960E94871019AE31
:104EA00018AE1BAE1AAE1DAE1CAE1FA2B801CE01CD
:104EB000C8960E949D10BE01685C7F4FCE01CE96C1
:104EC0000E949610CE01C8960E94BE1061E772E063
:104ED000CE01CE960E94871019AE18AE1BAE1AAE48
:104EE0001DAE1CAE1FA2B801CE01C8960E949D1037
:104EF000BE01685C7F4FCE01CE960E949610CE0117
:104F0000C8960E94BE1065E272E002C069E972E0D4
:104F1000CE01CE960E948710CE01CE960E94BC1381
:104F2000CE01CE965FCB6CEA72E083E594E00E94FE
:104F3000CF360E94DC070AC08FE006C060E08FE039
:104F40000E94FA1161E08EE00E94FA1160E08FE0A9
:104F50000E94FA110E94A01260937203709373036F
:104F600080937403909375030E94A01200916E03C6
:104F700010916F0320917003309171030E5C1F4FED
:104F80002F4F3F4F061717072807390708F06EC045
:104F9000809160038823A9F0C0905003D090510302
:104FA000E0905203F09053030E94A012C616D70659
:104FB000E806F90630F41092600360E081E00E9498
:104FC000D114809161038823A9F0C0905403D0903C
:104FD0005503E0905603F09057030E94A012C616A6
:104FE000D706E806F90630F41092610360E082E02B
:104FF0000E94D114809162038823A9F0C0905803C5
:10500000D0905903E0905A03F0905B030E94A012E5
:10501000C616D706E806F90630F41092620360E07F
:1050200084E00E94D114809163038823A9F0C0908A
:105030005C03D0905D03E0905E03F0905F030E94FC
:10504000A012C616D706E806F90630F410926303DC
:1050500060E088E00E94D1140E94A01260936E0369
:1050600070936F0380937003909371030E94A0125A
:1050700000916A0310916B0320916C0330916D03D2
:10508000005F184D2F4F3F4F0617170728073907A6
:1050900008F048C08091C3059091C405A091C50552
:1050A000B091C60589389341A105B1058CF1609195
:1050B000C7057091C80580E090E00E944B2F20E06A
:1050C00030E040E251E40E94A0316B017C0120E01D
:1050D00030E040E85FE30E94462F87FD19C020E0E2
:1050E00030E040EF51E4C701B6010E94462F87FF30
:1050F0000FC066E872E0CE0101960E944F1160E099
:10510000CE0101960E948607CE0101960E94BE1034
:105110000E94A01260936A0370936B0380936C03E8
:1051200090936D030E94A012009166031091670393
:10513000209168033091690308571C4E2F4F3F4F51
:10514000061717072807390710F00C94621761E05B
:1051500088E00E94D11481E0809363030E94A01232
:10516000DC01CB010A96A11DB11D80935C039093D5
:105170005D03A0935E03B0935F030E94A01260934F
:1051800066037093670380936803909369030C949C
:10519000621780913803882309F4CEC010923A0335
:1051A0001092390360E08EE00E94FA1161E08FE016
:1051B0000E94FA1160EB72E0CE0101960E944F113D
:1051C00061E0CE0101960E948607CE0101960E9401
:1051D000BE1088ED95E00E940A0E811124C06AE895
:1051E00071E0CE0101960E944F1161E0CE0101965F
:1051F0000E948607CE0101960E94BE1061E08EE0FB
:105200000E94FA1164E670E080E090E00E9466126D
:1052100060E08EE00E94FA1164E670E080E090E0C9
:105220000E946612EBCF40E050EC64E674E488ED37
:1052300095E00E94BB0D67E188ED95E00E94970D17
:1052400081E18093DC058093E30582E18093E205B0
:1052500066EA71E0CE0101960E944F1161E0CE0135
:1052600001960E948607CE0101960E94BE1068EB4F
:1052700071E0CE0101960E944F1160E0CE010196CF
:105280000E948607CE0101960E94BE1040E161E1B6
:1052900070E0CE0101960E94231161E0CE010196DB
:1052A0000E948607CE0101960E94BE1061E08FE049
:1052B0000E94FA110E94A01200917A0310917B03C0
:1052C00020917C0330917D030A561F4F2F4F3F4F93
:1052D000061717072807390780F4809137038130B4
:1052E00011F40E94FD040E94A01260937A0370934F
:1052F0007B0380937C0390937D030E94A012009116
:105300007E0310917F0320918003309181030C5024
:105310001E4F2F4F3F4F061717072807390750F624
:10532000A8950E94A01260937E0370937F038093E0
:10533000800390938103BECF0E94A012C0907E0391
:10534000D0907F03E0908003F0908103F4EFCF0EC4
:10535000F1E0DF1EE11CF11CC616D706E806F906CF
:1053600058F4A8950E94A01260937E0370937F0367
:1053700080938003909381030E94A50F0C94A41640
:105380006FE08AE60E94AB14F82E6FE08AE60E9476
:10539000AB142F2D30E0322F2227282B232B09F49A
:1053A00041C04CE760E28CE10E94431440E061E2BE
:1053B0008CE10E94431440E062E28CE10E944314BD
:1053C0004CE063E28CE10E94431440E064E28CE133
:1053D0000E94431440EC60E18AE60E94431440E0DE
:1053E00061E18AE60E94431440E062E18AE60E949D
:1053F00043144AE36EE18AE60E94431440E063E10D
:105400008AE60E94431448E36FE18AE60E9443144F
:1054100040EC60E28AE60E94431440E061E28AE6E2
:105420000E94431467E18AE60E94AB1480FF55C0D6
:1054300069E28AE60E94AB14E82EF12CFE2CEE24E1
:1054400068E28AE60E94AB14B701682B072E000CB5
:10545000880B990B0E944D2F20E43AED4FE758E35B
:105460000E94AC2F2B013C016BE28AE60E94AB1438
:10547000E82EF12CFE2CEE246AE28AE60E94AB14A0
:10548000B701682B072E000C880B990B0E944D2F3B
:1054900020E43AED4FE758E30E94AC2F6B017C010A
:1054A0006DE28AE60E94AB14A82EB12CBA2CAA2475
:1054B0006CE28AE60E94AB14B501682B072E000C43
:1054C000880B990B0E944D2F20E43AED4FE758E3EB
:1054D0000E94AC2F4B015C0107C0812C912C540120
:1054E000750164012401350167E18AE60E94AB146D
:1054F00081FF18C069E18AE60E94AB1468E18AE680
:105500000E94AB146BE18AE60E94AB146AE18AE662
:105510000E94AB146DE18AE60E94AB146CE18AE64E
:105520000E94AB1467E28CE10E94AB1483FF18C0A9
:1055300069E28CE10E94AB1468E28CE10E94AB143A
:105540006BE28CE10E94AB146AE28CE10E94AB1426
:105550006DE28CE10E94AB146CE28CE10E94AB1412
:105560006EE072E0C8010E948710A3019201C3019E
:10557000B2010E94AC2F2A966CAF7DAF8EAF9FAF69
:105580002A97A5019401C501B4010E94AC2F4B01DB
:105590005C019B01AC012A966CAD7DAD8EAD9FADDB
:1055A0002A970E9405310E94D6329B01AC01C701A7
:1055B000B6010E94A0310E94713120E030E044E346
:1055C00053E40E94AC2F2BED3FE049E450E40E94ED
:1055D000A031AB01BC0122E0CE0101960E94F31084
:1055E000BE016F5F7F4FC8010E949610CE010196E9
:1055F0000E94BE1061E772E0C8010E948710A701F7
:105600009601C701B6010E94AC2F6B017C01A50178
:1056100094010E9405310E94D6329B01AC01C30166
:10562000B2010E94A0310E94713120E030E044E3D9
:1056300053E40E94AC2F2BED3FE049E450E40E947C
:10564000A031AB01BC0122E0CE0101960E94F31013
:10565000BE016F5F7F4FC8010E949610CE01019678
:105660000E94BE1061E772E0C8010E948710A70186
:1056700096012A966CAD7DAD8EAD9FAD2A970E94A6
:105680000531A50194010E9405310E94D632AB017B
:10569000BC0122E0CE0101960E94F310BE016F5FB3
:1056A0007F4FC8010E949610CE0101960E94BE1045
:1056B00065E272E00C9496216AEB72E00C949621FC
:1056C0000E94BE1008C96DEC72E007C9E3E7F4E080
:1056D0001382128288EE93E0A0E0B0E08483958389
:1056E000A683B78326E231E03183208325EC30E0C6
:1056F0003587248724EC30E03787268720EC30E09C
:10570000318B208B21EC30E0338B228B22EC30E08C
:10571000358B248B26EC30E0378B268B118E128E46
:10572000138E148EE0E1F5E0138212828483958358
:10573000A683B78388E391E091838083A9EFB6E0E5
:1057400013961C921E92129715961C921E921497F5
:1057500017961C921E9216978AE491E011969C93DC
:105760008E93E8EDF5E0138212828FEF84838287B7
:10577000838714861586108A1786128A118A148ADE
:10578000138A178A168AB18FA08F9AE0928F2EE51E
:1057900031E0318320831092F50692E0938F848F5D
:1057A000E6E2F5E01086118612861386908B168A43
:1057B000108E178A118A138A148A128A84E690E05E
:1057C0009093C8058093C705ECE1F5E081E48087FC
:1057D00011860895EF920F931F93CF93DF93E80103
:1057E00047FD02C034E001C034E1E42F440FFF0B59
:1057F000F7FF03C0F195E195F109E32E022F2E2F5B
:10580000AE010E94D02CCE01DF91CF911F910F915C
:10581000EF9008958F929F92AF92BF92CF92DF92B6
:10582000EF92FF92CF93DF93EC01688179818A81B7
:105830009B81611571058105910521F464E279ED83
:105840008BE597E02DE133EF41E050E00E946A30B4
:1058500049015A019B01AC01A7EAB1E40E948930D9
:105860006B017C01ACEEB4EFA50194010E9497306E
:10587000DC01CB018C0D9D1DAE1DBF1DB7FF03C00C
:105880000197A109B04888839983AA83BB83BC018F
:10589000CD019F77DF91CF91FF90EF90DF90CF9078
:1058A000BF90AF909F908F9008950E940A2C08950A
:1058B00084E091E00E940A2C0895609304017093A3
:1058C000050180930601909307010895FB01DC0117
:1058D00002C005900D9241505040D8F708954532CE
:1058E000510520F4423010F00C947A2CFB01108208
:1058F000CB010895BB274A3031F4992322F4BDE24D
:10590000909581959F4F0C94B72CBB272A3051F46A
:10591000992342F4BDE290958095709561957F4FF3
:105920008F4F9F4F0C94952CBB27FA01A62F62171F
:10593000710581059105330B30FB66F0AA27660FD0
:10594000771F881F991FAA1FA21710F0A21B63952B
:105950003850A9F7A05DAA3308F0A95DA19336F7E6
:10596000B111B1931082CA010C94362FBB27FB01F1
:105970005527AA27880F991FAA1FA41710F0A41B48
:1059800083955051B9F7A05DAA3308F0A95DA193A2
:10599000009779F7B111B1931192CB010C94362F86
:1059A0004F925F926F927F929F92AF92BF92CF92EF
:1059B000DF92EF92FF920F931F93CF93DF93CDB7B8
:1059C000DEB729970FB6F894DEBF0FBECDBF6A01D0
:1059D000122FB02E2BE3201720F0FF24F394F00EAB
:1059E00002C0BCE3FB2E0F2D27E0AE014F5F5F4FDF
:1059F0000E945E2EAC018981982F9970913031F010
:105A0000E1FC06C0E0FE06C090E205C09DE203C0D6
:105A10009BE201C090E0EE2DE07183FF3CC091114C
:105A200002C083E001C084E0811718F4212F281BF5
:105A300001C020E0E1110BC0F601822F30E2882383
:105A400019F031938150FBCFC20ED11C20E0992375
:105A500029F0D6019C93F60131966F01C601039699
:105A6000E2FE0AC03EE4D6013C9341E411964C9319
:105A7000119712963C9306C03EE6F601308341E64C
:105A800041833283FC01322F40E2332309F442C0C8
:105A900041933150FACF82FF44C0911102C083E09C
:105AA00001C084E0811718F4212F281B01C020E0D9
:105AB000E1110BC0F601822F30E2882319F03193F7
:105AC0008150FBCFC20ED11C20E0992329F0D601D2
:105AD0009C93F60131966F01C6010396E2FE0BC05E
